:020000040000FA
:1000000002024EC28B21F0FFFFFFFFD290C20A32E4
:10001000FFFFFF0536301C4432FFFFD52A131122A3
:10002000414E32109908A899C29B8699C298C289FC
:100030003210940ED29485418D85408B201C02C2D3
:10004000893285458D85448B85434185424085367F
:1000500037753600D217201C02C28932D52B31D514
:100060002D0312100053A8EA1196308BFD0536C2FD
:100070008BD52D0312100020100D20B303308BFA06
:10008000B291208B070182308BFDB291D2AA0197E9
:10009000D52D0312100032C0E0C0D020911AE4A286
:1000A00010353013149210C2AA252BF52BD2AAC2F8
:1000B00089D2A8D0D0D0E022C083C082C0F09011F5
:1000C00060E4A21035339531C39557C3952F1314AF
:1000D0009210C2AA252BF52BD2AA7403253593C200
:1000E000AA252DF52DD2AA511DC289D2A875D018E6
:1000F000021029D534367D2D20160C7D2B201507B6
:100100007D292014027D27ED93F5340DED93FDE557
:1001100032FEAF31C39FC330E70AF4049DEE400ABC
:10012000EF9D212A9DEE4002EF2DF53174019305DC
:1001300035B5350F753500900000F0F0F0F09011F6
:10014000602166201A20100F0221E575F040E54C71
:10015000A4FEAFF0300A64C28CC3E58A9EF58AE53E
:100160008C9FF58C21D0C37411939537721D406E0E
:10017000AE4AAF4B02102C201A41300D2DE54DB484
:100180001000400CC20D301605C21675340121AAAC
:10019000901140200E02241093B44008301605C27E
:1001A0001675340191D97402B109300F0EC20F7562
:1001B000F040E54CA42EFEE5F03FFF02102FE55481
:1001C00075F005A4C28C2EF4F58AE5F03FF4F58CA9
:1001D000C2AFC290D20AD28CD2A9C289D2AFE54DA9
:1001E00020E702054DD0F0D082D083D0D0D0E022DD
:1001F000C0D0A2B3728B852C2B852E2D4004A2116A
:100200004108B0114002052B9210D52B06052B1585
:10021000301530753500A2139291D0D0327402930C
:10022000F52ED213740093D39531C39557C3952FF0
:100230005005C3C213352FC31360F8F52C92117407
:100240000725359325312557F533852F302275A89D
:10025000807590FF75B0FF75891175B802758805B6
:1002600075989075816390116075D0007864E40290
:10027000100BF6D8FD02100ED21C78007940120A3D
:1002800005D28ED2ABD2AAD28F3017FDC21730174B
:10029000FDD21A121005740E93F851BFD8FC02104B
:1002A00017C28975A000F2F2F2F2740D93F52A30AC
:1002B0001703C217F23089F5D2A8C21C0210083009
:1002C000B3FD20B3FD2275A000E27A3278107B08DE
:1002D000E2DAFE05A0E2F6087A32E2DBF4E512F497
:1002E000FC7A01B11DF512E513F4FCB11DF513788C
:1002F00038793C7A047B33201C05E614F67008EB51
:1003000093F6E7600214F708090BDAEB741893B55B
:1003100037004064201C61AD55E537C39D92D55030
:1003200002F404C5F0741593A4FE20E704C5F06040
:10033000027E7FE55630D50FC39E50172480BD0046
:100340000280101555800C2E50092480BDFF0280BC
:10035000020555F556741993B5490074004015E52A
:1003600055B53702800740097416938007740080E2
:1003700003741793F557800985375575568075575F
:1003800000301A237D00741293F54975F019A4FE0C
:10039000AFF07401938549F0A475F019A485F04677
:1003A000F5477548008105AB3774328BF084FF91B7
:1003B000EAFEE51075F02084FAABF09010F493910A
:1003C000D99010FCEA93B109901104EB9391D99064
:1003D00011607413913D7414913FEEFBEFFC7A1B96
:1003E00012051DFDAA46A947A8481205FA8A4689A2
:1003F000478848AF46AE4774A491D97404B1098FB9
:1004000049AF46AE47021032C050021035A84EA97F
:100410004F9155E550B109D0501210387A1AB11DDC
:10042000F554C2AF8F4B8E4AC289D2AF12103B3007
:100430001E087950D2ACD9FCC2AC02103ED2D59382
:1004400075F019A4FB9EE5F09F10D501B35005EBA4
:10045000FEE5F0FF22E88EF0A4ADF0E98EF0A42DC9
:10046000FDE435F0FEE88FF0A42DFDEE35F0FEE45E
:1004700033CFF5F0E9A42EFEEF35F0FF22201A4924
:10048000201846C3E5109553403FF503743793C3D6
:100490009537500575F00081A47A1C12051DF5F002
:1004A00012051DA4200F0385F04C7A1E12051D6055
:1004B00018F5F0E54C6002D20F12051DA4B11DA481
:1004C000E5F0B53D004002F53D855253855152851A
:1004D0001051E53D12087D810DFD8EF0A4AEF0CDEA
:1004E0008FF0A42EFEE435F0FF22E47C08C333C570
:1004F000F03310D70B9B50012BC5F0DCF133F42205
:100500009BC3C5F0DCE833F4226005CF30E702CFAF
:1005100022C3CD33CDCE33CE33CF14A109C0F0905A
:100520001090EA0AD2D393B4FF04D22AA170C22A4F
:10053000A2E0C2E09011E0FF0F93CF93F5828F838A
:100540004006B178B1A1A170B17889F0E8FEEBFF67
:10055000B178EAA429F9EF6002B1A1CAF40429F93B
:10056000B1A1CF7003CFA170FB8EF0CFFDEAB1B087
:10057000C2D3D0F090116022E493F8A3E493FAF987
:10058000E6F8E99328F84006D9F809E4A194E96A65
:100590006002E993FBA3EA2582F582E43583F583C3
:1005A00022EB7004E914932288F0E91493FDE99397
:1005B000C39D92D55002F404A4A1DAC5F0C3334020
:1005C000029BB3E435F030D502F4042D22D2D3B12E
:1005D0007819E993901160C2D3227C08C333C5F027
:1005E0003310D70C9B50012BC5F0DCF133F4A1BBC9
:1005F0009BC3C5F0DCE733F4A1BBEBC399FEEC9AD7
:10060000FF7004EE7001F84010ED91D9C3ED28F8A9
:10061000EE39F9EF3AFA020631C3EEF42401FEEFA7
:10062000F43400FFED91D9C3E89DF8E99EF9EA9F03
:10063000FA22E4A296338001E4A2B4332AFA22D14A
:1006400041740F937800F9D15230B3FBD15220B3EB
:10065000FB22D804D902414E22901124B1CD13922D
:1006600019139218021047E515B48000B3921BE5E8
:1006700014B48000B3922E741093C39537500A7A45
:1006800003B11DC39537400422D21A22C21A227D1B
:1006900000C3301A067A04F1AAC1E13018087A07BB
:1006A000F1AAD138C1DA3019087A0BF1AAD138C1D0
:1006B000C57A1174209395494006F1AAD132C1DA66
:1006C0001AF1AAD13290112EB1CD30E20D742193DE
:1006D000C3953750057422932DFDB11D2DC394147D
:1006E000FD02104A7A17B11D2DC39414FDF8A2E73C
:1006F000742350010493F95001C8C3985002E9FDD6
:10070000EDA2E713FD02104D201A653018247A1966
:10071000B11DC395375027FB7432200E02743193FC
:100720002B404DD215EDB53147D21DC215F532F52E
:100730003122C20EC215301D37742F93E148C21505
:10074000301D2DD20E7430932531F5318D32C3ED2D
:10075000953130E70C753401754D00D20DC21DE1A5
:1007600070742D93F534D216754D00D20DC21D2232
:10077000C3742593954940067426939537B3301476
:1007800001B3500BB214201606201503753401ED89
:10079000301C05F531753401ED30160BC395313041
:1007A000E705C2167534018D3222B11D202A072DAE
:1007B000C39414FDE1AA227A18B11DF52F229011DD
:1007C0002EB1CDC2E2241B93F5F07A21B11DA4AF66
:1007D000F0FE755002B11D120886301A5F7A2F7430
:1007E0001F93B5130050010AB11DF53C7A31B11DBC
:1007F000FC7B057908200C13B11DC39537400774A5
:100800001A93954D5022D20C754D007A3312051D66
:10081000F5F012051DA4EC20E70723C923C91B80AE
:10082000F6A4ACF030E7010CECB50100400B12046B
:10083000D9E5502B120509F550020873120638123B
:10084000051DF5F07A253018010A12051DA4E5F002
:1008500012087DE53C12087D7A2712063820180D13
:100860007A291206382019057A2B12063212051D34
:100870001208860210508E4E8F4F021053601224C1
:100880008050031305501204D9E55004120509F5F0
:100890005022021068301C08120A4A752000D20645
:1008A000100103D20122201A15201D1FA21982183F
:1008B0004022201829120A4AD206C20021C5D206B7
:1008C000D2007A3512051DF57F212DD206C2001205
:1008D0000A4A21C5743C93C313F9780041050210FC
:1008E0006B301B097A3612051DF57F80407A37126E
:1008F000051DF5F020B50A743993B5F0004002F5F6
:10090000F030060E02106E20000385377F757C01E3
:10091000C206E5F0B57F005011D57C0B157F743F02
:10092000A200340093F57C857FF085F07F743893C6
:100930002537D3957F50087480957E4002514A0236
:100940001071E57FC3953792025006C203F404800C
:1009500002C204FBA97EA87D1003161004137A3886
:100960003002010A12051DF5F0EB120BDD887D89BE
:100970007E2002147A3A12051DF5F0EBB43F0040D8
:1009800002E53F2323120BDD021074E9C330E713A5
:10099000201A1F743D93132480B501005014F9D21E
:1009A00003800F743E9313F42480B501004003F9D3
:1009B000D2047A3D12051DB549004002D204E9C3B4
:1009C00094809205F90210777A3C12051DF5F030FB
:1009D0001D077A3B12051D5155301B05743B935181
:1009E0005520B505743A9351557480A402107A28A5
:1009F000F8E5F039F930E70D300506790078008028
:100A000004797F78FF02107DAF01AE0074011205FA
:100A1000098F7B7441931204D97442932FFF740B96
:100A200093F8740C93F9120455EEF4F8EFF4F9749A
:100A30000B93FB740C93FCD3EE9BCF9CFBC2AB8F50
:100A4000448B4588428943D2AB22757E80757D00F8
:100A5000790078002225F05002E5FFF5F0227A3E79
:100A600030B4027A4112051DF51812051DF5191250
:100A7000051DF51A22301C03751B80A81CA91BA29A
:100A800097B39202400E202605120BCD8013E4127C
:100A90000BD4800D302605120BCD8005E51A120B04
:100AA000D4881C891BA202922602105C201A4A20BC
:100AB0001947201D44000000744B93B5370040399E
:100AC000744C93B54900501530252E202109D221B0
:100AD000C222744D93F53FE53F601E8002C221742F
:100AE00049201802744893FA202504744A932AC3B3
:100AF00095139225120B508002C22512105F30967A
:100B000017209714202309D223C224744393F53E5F
:100B1000E53E701AC227801620240DD224C223C2BB
:100B200022D220744493F53EE53E7002D227A225DE
:100B3000822782209225400A78007980881C891BB0
:100B4000C2220210621204557401120509021065D6
:100B5000744693FBC3E99B40047800800A74479372
:100B6000FBC399402478FFEBF9881C891B202119CD
:100B7000202210744593B4FF06C222D220800AD2EC
:100B800022F53FE53F7002C220227A4EEA93B53744
:100B9000004010CA0493CA9AB5370050028006D2AA
:100BA000958002C295301F07E51BA2E70092B12293
:100BB000302506C295C20B80EC200B09745093F5CA
:100BC0003FD295D20BE53F7002C29580D8E51875EB
:100BD000F0018009F404251975F010C224A430F73F
:100BE0000375F07F300205B3F463F0FF38F8E5F0E9
:100BF00039F9E4200202B3F44002F8F922201A5431
:100C00007A4412051DFB20092FB549004004C20893
:100C10008042745220080AD20893F558745493F510
:100C200059E558702FD209745393F558745593F5BC
:100C300059D21D8D328D3122E5587006C208C20985
:100C40008012745193F4042BC395495007D21D8D23
:100C5000328D31220210591559E559700F745430F4
:100C600009010493F559E558600215580210560021
:100C700000000000D29522C28975A000F2F2F2F2C3
:100C8000740D93F5F0A2B392E07D007E027F0233F3
:100C900085F02A301703C217F2DD1120E0077F022A
:100CA000DE0A02024E7E02DF0302024EA2B392E08F
:100CB00072E1500CA2E082E140067D007E027F02DC
:100CC000333089CCD2A8C21C02100830B3FD20B347
:100CD000FD2230B407D231D230020CE0C231D23022
:100CE000020F9A201C6EE529600314F52920B41B1D
:100CF000C236303142203045203406D232C23380F1
:100D000004C232D233D230C23180497A4620311106
:100D1000745893F529201D2B103609A23492358082
:100D2000032030192035010A12051DC39414A2E7CF
:100D300013D231C230F531E5297019D230C232C236
:100D4000338011D230C231C232C233203606A234CF
:100D50009235D23622201C3E30303B2032052033E3
:100D600002A196D534309011607456203202745727
:100D700093F5347A4512051DFDE532FEAF31C39F70
:100D8000C320E7079D4004EF2DA194C232C2337502
:100D90003401E532F53122E528C39537500DF5F0E1
:100DA000746D9325F04004C2348002D23485372814
:100DB00022201C0C30301320160920320D20330A5B
:100DC0000200F3C232C2330200F302012C201C11D4
:100DD000201D0A20300BC215C2160207A7C232C25C
:100DE00033020708021080E106752700C228F121AE
:100DF000745F939513B3923CA225B3923D746093B4
:100E00009512923E785C745D30390378590493F5FD
:100E1000F0021083E52754786002C1C3745993F43B
:100E2000042559251BFBC39692025002F404A4AE7C
:100E3000F0FD08200219E62DF608E63EF65030C314
:100E40009480F61818745A93D3964023068017C3DB
:100E5000E69DF608E69EF650162480F61818745B98
:100E600093C396500A16303906E67806121DF2C36F
:100E700074599395592BF51B203948021086D56378
:100E800042745C93F563C3E55C95595002F4049297
:100E90000275F00130380FA95FA86071DD855FF041
:100EA000895F8860800DA961A86271DD8561F08924
:100EB000618862E9780C2038027812B5F00280036C
:100EC000121DF2021089C3E55F948092D55002F49E
:100ED00004F9AB378537F0743284FF1204EAFEE977
:100EE0001204D9EF60027EFFEEC313248030D502D6
:100EF000F4002561B392D55002F4007002C2D5F51A
:100F000058A2D5922922E5498537F0A4AFF0FE74A6
:100F1000A41204D9740212050960027FFFEFFCA13C
:100F2000E902108CC37463939C500A746493C39554
:100F30004992398030746293953740097461939C6B
:100F4000B392388020746693C395375018746593B4
:100F5000C39C40117467939549500A746893C39574
:100F6000494002D23AE52754077002D23B22745915
:100F700093F404255929F96145E55875F004A43026
:100F80002905B3F463F0FF3EFEE5F03FFFE42029BE
:100F900002B3F44002FFFE0201BE75891175B8026A
:100FA00043A885438805901160758163C292740DD2
:100FB00093F52A12063F12101A120FE71206591261
:100FC0000FE712068F12101A120FE71207B7120F4F
:100FD000E712101A1207BE120FE702101D301CBADA
:100FE00012021D12030C22101701220202C6FFFF7B
:100FF000FFFFFFFFFFFFFFFFFFFFFFFFFFFF0042BD
:10100000C295020C6F021F4E021F3A020272121E9C
